{
  "contractName": "ProductTracker",
  "abi": [
    {
      "constant": true,
      "inputs": [
        {
          "internalType": "uint256",
          "name": "",
          "type": "uint256"
        }
      ],
      "name": "products",
      "outputs": [
        {
          "internalType": "uint256",
          "name": "productId",
          "type": "uint256"
        },
        {
          "internalType": "string",
          "name": "name",
          "type": "string"
        },
        {
          "internalType": "uint256",
          "name": "manufacturerPrice",
          "type": "uint256"
        },
        {
          "internalType": "uint256",
          "name": "mrpPrice",
          "type": "uint256"
        },
        {
          "internalType": "string",
          "name": "qrHash",
          "type": "string"
        },
        {
          "internalType": "address",
          "name": "manufacturer",
          "type": "address"
        }
      ],
      "payable": false,
      "stateMutability": "view",
      "type": "function"
    },
    {
      "constant": false,
      "inputs": [
        {
          "internalType": "uint256",
          "name": "_productId",
          "type": "uint256"
        },
        {
          "internalType": "string",
          "name": "_name",
          "type": "string"
        },
        {
          "internalType": "uint256",
          "name": "_manufacturerPrice",
          "type": "uint256"
        },
        {
          "internalType": "uint256",
          "name": "_mrpPrice",
          "type": "uint256"
        },
        {
          "internalType": "string",
          "name": "_qrHash",
          "type": "string"
        }
      ],
      "name": "addProduct",
      "outputs": [],
      "payable": false,
      "stateMutability": "nonpayable",
      "type": "function"
    },
    {
      "constant": true,
      "inputs": [
        {
          "internalType": "uint256",
          "name": "_productId",
          "type": "uint256"
        }
      ],
      "name": "getManufacturerPrice",
      "outputs": [
        {
          "internalType": "uint256",
          "name": "",
          "type": "uint256"
        }
      ],
      "payable": false,
      "stateMutability": "view",
      "type": "function"
    },
    {
      "constant": true,
      "inputs": [
        {
          "internalType": "uint256",
          "name": "_productId",
          "type": "uint256"
        }
      ],
      "name": "getMRP",
      "outputs": [
        {
          "internalType": "uint256",
          "name": "",
          "type": "uint256"
        }
      ],
      "payable": false,
      "stateMutability": "view",
      "type": "function"
    },
    {
      "constant": true,
      "inputs": [
        {
          "internalType": "uint256",
          "name": "_productId",
          "type": "uint256"
        }
      ],
      "name": "getQRHash",
      "outputs": [
        {
          "internalType": "string",
          "name": "",
          "type": "string"
        }
      ],
      "payable": false,
      "stateMutability": "view",
      "type": "function"
    },
    {
      "constant": true,
      "inputs": [
        {
          "internalType": "uint256",
          "name": "_productId",
          "type": "uint256"
        },
        {
          "internalType": "string",
          "name": "scannedHash",
          "type": "string"
        }
      ],
      "name": "verifyQR",
      "outputs": [
        {
          "internalType": "bool",
          "name": "",
          "type": "bool"
        }
      ],
      "payable": false,
      "stateMutability": "view",
      "type": "function"
    }
  ],
  "bytecode": "0x608060405234801561001057600080fd5b50610a23806100206000396000f3fe608060405234801561001057600080fd5b50600436106100625760003560e01c80636c6560b51461006757806375eac708146101445780637acc0b2014610186578063c830f27a146102e1578063e61cffed14610388578063f81c5efc146104f8575b600080fd5b61012a6004803603604081101561007d57600080fd5b8101908080359060200190929190803590602001906401000000008111156100a457600080fd5b8201836020820111156100b657600080fd5b803590602001918460018302840111640100000000831117156100d857600080fd5b91908080601f016020809104026020016040519081016040528093929190818152602001838380828437600081840152601f19601f82011690508083019250505050505050919291929050505061053a565b604051808215151515815260200191505060405180910390f35b6101706004803603602081101561015a57600080fd5b81019080803590602001909291905050506105ca565b6040518082815260200191505060405180910390f35b6101b26004803603602081101561019c57600080fd5b81019080803590602001909291905050506105e9565b6040518087815260200180602001868152602001858152602001806020018473ffffffffffffffffffffffffffffffffffffffff1673ffffffffffffffffffffffffffffffffffffffff168152602001838103835288818151815260200191508051906020019080838360005b8381101561023a57808201518184015260208101905061021f565b50505050905090810190601f1680156102675780820380516001836020036101000a031916815260200191505b50838103825285818151815260200191508051906020019080838360005b838110156102a0578082015181840152602081019050610285565b50505050905090810190601f1680156102cd5780820380516001836020036101000a031916815260200191505b509850505050505050505060405180910390f35b61030d600480360360208110156102f757600080fd5b8101908080359060200190929190505050610775565b6040518080602001828103825283818151815260200191508051906020019080838360005b8381101561034d578082015181840152602081019050610332565b50505050905090810190601f16801561037a5780820380516001836020036101000a031916815260200191505b509250505060405180910390f35b6104f6600480360360a081101561039e57600080fd5b8101908080359060200190929190803590602001906401000000008111156103c557600080fd5b8201836020820111156103d757600080fd5b803590602001918460018302840111640100000000831117156103f957600080fd5b91908080601f016020809104026020016040519081016040528093929190818152602001838380828437600081840152601f19601f82011690508083019250505050505050919291929080359060200190929190803590602001909291908035906020019064010000000081111561047057600080fd5b82018360208201111561048257600080fd5b803590602001918460018302840111640100000000831117156104a457600080fd5b91908080601f016020809104026020016040519081016040528093929190818152602001838380828437600081840152601f19601f82011690508083019250505050505050919291929050505061082c565b005b6105246004803603602081101561050e57600080fd5b810190808035906020019092919050505061092a565b6040518082815260200191505060405180910390f35b6000818051906020012060008085815260200190815260200160002060040160405180828054600181600116156101000203166002900480156105b45780601f106105925761010080835404028352918201916105b4565b820191906000526020600020905b8154815290600101906020018083116105a0575b5050915050604051809103902014905092915050565b6000806000838152602001908152602001600020600201549050919050565b6000602052806000526040600020600091509050806000015490806001018054600181600116156101000203166002900480601f01602080910402602001604051908101604052809291908181526020018280546001816001161561010002031660029004801561069b5780601f106106705761010080835404028352916020019161069b565b820191906000526020600020905b81548152906001019060200180831161067e57829003601f168201915b505050505090806002015490806003015490806004018054600181600116156101000203166002900480601f0160208091040260200160405190810160405280929190818152602001828054600181600116156101000203166002900480156107455780601f1061071a57610100808354040283529160200191610745565b820191906000526020600020905b81548152906001019060200180831161072857829003601f168201915b5050505050908060050160009054906101000a900473ffffffffffffffffffffffffffffffffffffffff16905086565b60606000808381526020019081526020016000206004018054600181600116156101000203166002900480601f0160208091040260200160405190810160405280929190818152602001828054600181600116156101000203166002900480156108205780601f106107f557610100808354040283529160200191610820565b820191906000526020600020905b81548152906001019060200180831161080357829003601f168201915b50505050509050919050565b6040518060c001604052808681526020018581526020018481526020018381526020018281526020013373ffffffffffffffffffffffffffffffffffffffff168152506000808781526020019081526020016000206000820151816000015560208201518160010190805190602001906108a7929190610949565b50604082015181600201556060820151816003015560808201518160040190805190602001906108d8929190610949565b5060a08201518160050160006101000a81548173ffffffffffffffffffffffffffffffffffffffff021916908373ffffffffffffffffffffffffffffffffffffffff1602179055509050505050505050565b6000806000838152602001908152602001600020600301549050919050565b828054600181600116156101000203166002900490600052602060002090601f016020900481019282601f1061098a57805160ff19168380011785556109b8565b828001600101855582156109b8579182015b828111156109b757825182559160200191906001019061099c565b5b5090506109c591906109c9565b5090565b6109eb91905b808211156109e75760008160009055506001016109cf565b5090565b9056fea265627a7a723158206e381fa450d52306535280e9333af2859358b9fb1a887d44eaf049591cc0bbc564736f6c63430005100032",
  "source": "// SPDX-License-Identifier: MIT\r\npragma solidity ^0.5.16;\r\n\r\ncontract ProductTracker {\r\n    struct Product {\r\n        uint256 productId;\r\n        string name;\r\n      // No need for wei. Just store rupees.\r\n        uint256  manufacturerPrice; // ₹150 stored as 150\r\n        uint256  mrpPrice; // Optional: for future validation\r\n\r\n        string qrHash;\r\n        address manufacturer;\r\n    }\r\n\r\n    mapping(uint => Product) public products;\r\n\r\n    /// Add a new product\r\n    function addProduct(\r\n        uint _productId,\r\n        string memory _name,\r\n        uint _manufacturerPrice,\r\n        uint _mrpPrice,\r\n        string memory _qrHash\r\n    ) public {\r\n        products[_productId] = Product({\r\n            productId: _productId,\r\n            name: _name,\r\n            manufacturerPrice: _manufacturerPrice,\r\n            mrpPrice: _mrpPrice,\r\n            qrHash: _qrHash,\r\n            manufacturer: msg.sender\r\n        });\r\n    }\r\n\r\n    /// Get Manufacturer Price\r\n    function getManufacturerPrice(uint _productId) public view returns (uint) {\r\n        return products[_productId].manufacturerPrice;\r\n    }\r\n\r\n    /// Get MRP\r\n    function getMRP(uint _productId) public view returns (uint) {\r\n        return products[_productId].mrpPrice;\r\n    }\r\n\r\n    /// Get QR Hash\r\n    function getQRHash(uint _productId) public view returns (string memory) {\r\n        return products[_productId].qrHash;\r\n    }\r\n\r\n    /// Verify QR hash against expected value\r\n    function verifyQR(uint _productId, string memory scannedHash) public view returns (bool) {\r\n        return keccak256(bytes(products[_productId].qrHash)) == keccak256(bytes(scannedHash));\r\n    }\r\n}\r\n",
  "sourcePath": "D:\\sem6\\codeher\\ProductDApp\\contracts\\ProductRegistry.sol",
  "compiler": {
    "name": "solc",
    "version": "0.5.16+commit.9c3226ce.Emscripten.clang"
  },
  "schemaVersion": "3.4.16",
  "updatedAt": "2025-04-05T15:39:43.795Z",
  "networkType": "ethereum",
  "devdoc": {
    "methods": {}
  },
  "userdoc": {
    "methods": {
      "addProduct(uint256,string,uint256,uint256,string)": {
        "notice": "Add a new product"
      },
      "getMRP(uint256)": {
        "notice": "Get MRP"
      },
      "getManufacturerPrice(uint256)": {
        "notice": "Get Manufacturer Price"
      },
      "getQRHash(uint256)": {
        "notice": "Get QR Hash"
      },
      "verifyQR(uint256,string)": {
        "notice": "Verify QR hash against expected value"
      }
    }
  }
}